{
  "_format": "hh-sol-artifact-1",
  "contractName": "Farm",
  "sourceName": "contracts/Farm.sol",
  "abi": [
    {
      "inputs": [
        {
          "internalType": "uint256",
          "name": "_allocPoint",
          "type": "uint256"
        },
        {
          "internalType": "contract IERC20",
          "name": "_want",
          "type": "address"
        },
        {
          "internalType": "bool",
          "name": "_withUpdate",
          "type": "bool"
        },
        {
          "internalType": "address",
          "name": "_strat",
          "type": "address"
        }
      ],
      "name": "addLP",
      "outputs": [],
      "stateMutability": "nonpayable",
      "type": "function"
    },
    {
      "inputs": [],
      "name": "getOwner",
      "outputs": [
        {
          "internalType": "address",
          "name": "",
          "type": "address"
        }
      ],
      "stateMutability": "view",
      "type": "function"
    },
    {
      "inputs": [
        {
          "internalType": "uint256",
          "name": "_pid",
          "type": "uint256"
        },
        {
          "internalType": "uint256",
          "name": "_allocPoint",
          "type": "uint256"
        },
        {
          "internalType": "bool",
          "name": "_withUpdate",
          "type": "bool"
        }
      ],
      "name": "setAlloc",
      "outputs": [],
      "stateMutability": "nonpayable",
      "type": "function"
    }
  ],
  "bytecode": "0x608060405260008054730895196562c7868c5be92459fae7f877ed4504526001600160a01b0319918216811790925560018054909116909117905534801561004657600080fd5b5061030d806100566000396000f3fe608060405234801561001057600080fd5b50600436106100415760003560e01c8063422c906b146100465780636e2595b51461005b578063893d20e81461006e575b600080fd5b61005961005436600461022d565b610092565b005b61005961006936600461027e565b61010e565b610076610180565b6040516001600160a01b03909116815260200160405180910390f35b600154604051635f70edcf60e01b8152600481018690526001600160a01b0385811660248301528415156044830152838116606483015290911690635f70edcf90608401600060405180830381600087803b1580156100f057600080fd5b505af1158015610104573d6000803e3d6000fd5b5050505050505050565b6001546040516364482f7960e01b8152600481018590526024810184905282151560448201526001600160a01b03909116906364482f7990606401600060405180830381600087803b15801561016357600080fd5b505af1158015610177573d6000803e3d6000fd5b50505050505050565b600080600160009054906101000a90046001600160a01b03166001600160a01b0316638da5cb5b6040518163ffffffff1660e01b8152600401602060405180830381865afa1580156101d6573d6000803e3d6000fd5b505050506040513d601f19601f820116820180604052508101906101fa91906102b3565b92915050565b6001600160a01b038116811461021557600080fd5b50565b8035801515811461022857600080fd5b919050565b6000806000806080858703121561024357600080fd5b84359350602085013561025581610200565b925061026360408601610218565b9150606085013561027381610200565b939692955090935050565b60008060006060848603121561029357600080fd5b83359250602084013591506102aa60408501610218565b90509250925092565b6000602082840312156102c557600080fd5b81516102d081610200565b939250505056fea26469706673582212205947b40edc62613d92c1508533dbf0e801e3183ecc11dbe2f71f564c9d7911a464736f6c63430008110033",
  "linkReferences": {},
  "deployedLinkReferences": {}
}