{
  "_format": "hh-sol-artifact-1",
  "contractName": "Farm",
  "sourceName": "contracts/Farm.sol",
  "abi": [
    {
      "inputs": [],
      "name": "getOwner",
      "outputs": [
        {
          "internalType": "address",
          "name": "",
          "type": "address"
        }
      ],
      "stateMutability": "view",
      "type": "function"
    },
    {
      "inputs": [
        {
          "internalType": "uint256",
          "name": "_pid",
          "type": "uint256"
        },
        {
          "internalType": "uint256",
          "name": "_allocPoint",
          "type": "uint256"
        },
        {
          "internalType": "bool",
          "name": "_withUpdate",
          "type": "bool"
        }
      ],
      "name": "setAlloc",
      "outputs": [],
      "stateMutability": "nonpayable",
      "type": "function"
    }
  ],
  "bytecode": "0x608060405260008054730895196562c7868c5be92459fae7f877ed4504526001600160a01b0319918216811790925560018054909116909117905534801561004657600080fd5b5061020a806100566000396000f3fe608060405234801561001057600080fd5b50600436106100365760003560e01c80636e2595b51461003b578063893d20e814610050575b600080fd5b61004e610049366004610166565b610074565b005b6100586100e6565b6040516001600160a01b03909116815260200160405180910390f35b6001546040516364482f7960e01b8152600481018590526024810184905282151560448201526001600160a01b03909116906364482f7990606401600060405180830381600087803b1580156100c957600080fd5b505af11580156100dd573d6000803e3d6000fd5b50505050505050565b600080600160009054906101000a90046001600160a01b03166001600160a01b0316638da5cb5b6040518163ffffffff1660e01b8152600401602060405180830381865afa15801561013c573d6000803e3d6000fd5b505050506040513d601f19601f8201168201806040525081019061016091906101a4565b92915050565b60008060006060848603121561017b57600080fd5b83359250602084013591506040840135801515811461019957600080fd5b809150509250925092565b6000602082840312156101b657600080fd5b81516001600160a01b03811681146101cd57600080fd5b939250505056fea26469706673582212209c40418aae21b45b544bbf5d809a3ba106aacba11024ac832ae5f7d0eed9e8fb64736f6c63430008110033",
  "linkReferences": {},
  "deployedLinkReferences": {}
}