{
  "_format": "hh-sol-artifact-1",
  "contractName": "AutoFarmV2",
  "sourceName": "contracts/AutoFarmV2.sol",
  "abi": [
    {
      "anonymous": false,
      "inputs": [
        {
          "indexed": true,
          "internalType": "address",
          "name": "user",
          "type": "address"
        },
        {
          "indexed": true,
          "internalType": "uint256",
          "name": "pid",
          "type": "uint256"
        },
        {
          "indexed": false,
          "internalType": "uint256",
          "name": "amount",
          "type": "uint256"
        }
      ],
      "name": "Deposit",
      "type": "event"
    },
    {
      "anonymous": false,
      "inputs": [
        {
          "indexed": true,
          "internalType": "address",
          "name": "user",
          "type": "address"
        },
        {
          "indexed": true,
          "internalType": "uint256",
          "name": "pid",
          "type": "uint256"
        },
        {
          "indexed": false,
          "internalType": "uint256",
          "name": "amount",
          "type": "uint256"
        }
      ],
      "name": "EmergencyWithdraw",
      "type": "event"
    },
    {
      "anonymous": false,
      "inputs": [
        {
          "indexed": true,
          "internalType": "address",
          "name": "previousOwner",
          "type": "address"
        },
        {
          "indexed": true,
          "internalType": "address",
          "name": "newOwner",
          "type": "address"
        }
      ],
      "name": "OwnershipTransferred",
      "type": "event"
    },
    {
      "anonymous": false,
      "inputs": [
        {
          "indexed": true,
          "internalType": "address",
          "name": "user",
          "type": "address"
        },
        {
          "indexed": true,
          "internalType": "uint256",
          "name": "pid",
          "type": "uint256"
        },
        {
          "indexed": false,
          "internalType": "uint256",
          "name": "amount",
          "type": "uint256"
        }
      ],
      "name": "Withdraw",
      "type": "event"
    },
    {
      "inputs": [],
      "name": "AUTO",
      "outputs": [
        {
          "internalType": "address",
          "name": "",
          "type": "address"
        }
      ],
      "stateMutability": "view",
      "type": "function"
    },
    {
      "inputs": [],
      "name": "AUTOMaxSupply",
      "outputs": [
        {
          "internalType": "uint256",
          "name": "",
          "type": "uint256"
        }
      ],
      "stateMutability": "view",
      "type": "function"
    },
    {
      "inputs": [],
      "name": "AUTOPerBlock",
      "outputs": [
        {
          "internalType": "uint256",
          "name": "",
          "type": "uint256"
        }
      ],
      "stateMutability": "view",
      "type": "function"
    },
    {
      "inputs": [],
      "name": "AUTOv2",
      "outputs": [
        {
          "internalType": "address",
          "name": "",
          "type": "address"
        }
      ],
      "stateMutability": "view",
      "type": "function"
    },
    {
      "inputs": [
        {
          "internalType": "uint256",
          "name": "_allocPoint",
          "type": "uint256"
        },
        {
          "internalType": "contract IERC20",
          "name": "_want",
          "type": "address"
        },
        {
          "internalType": "bool",
          "name": "_withUpdate",
          "type": "bool"
        },
        {
          "internalType": "address",
          "name": "_strat",
          "type": "address"
        }
      ],
      "name": "add",
      "outputs": [],
      "stateMutability": "nonpayable",
      "type": "function"
    },
    {
      "inputs": [],
      "name": "burnAddress",
      "outputs": [
        {
          "internalType": "address",
          "name": "",
          "type": "address"
        }
      ],
      "stateMutability": "view",
      "type": "function"
    },
    {
      "inputs": [
        {
          "internalType": "uint256",
          "name": "_pid",
          "type": "uint256"
        },
        {
          "internalType": "uint256",
          "name": "_wantAmt",
          "type": "uint256"
        }
      ],
      "name": "deposit",
      "outputs": [],
      "stateMutability": "nonpayable",
      "type": "function"
    },
    {
      "inputs": [
        {
          "internalType": "uint256",
          "name": "_pid",
          "type": "uint256"
        }
      ],
      "name": "emergencyWithdraw",
      "outputs": [],
      "stateMutability": "nonpayable",
      "type": "function"
    },
    {
      "inputs": [
        {
          "internalType": "uint256",
          "name": "_from",
          "type": "uint256"
        },
        {
          "internalType": "uint256",
          "name": "_to",
          "type": "uint256"
        }
      ],
      "name": "getMultiplier",
      "outputs": [
        {
          "internalType": "uint256",
          "name": "",
          "type": "uint256"
        }
      ],
      "stateMutability": "view",
      "type": "function"
    },
    {
      "inputs": [
        {
          "internalType": "address",
          "name": "_token",
          "type": "address"
        },
        {
          "internalType": "uint256",
          "name": "_amount",
          "type": "uint256"
        }
      ],
      "name": "inCaseTokensGetStuck",
      "outputs": [],
      "stateMutability": "nonpayable",
      "type": "function"
    },
    {
      "inputs": [],
      "name": "massUpdatePools",
      "outputs": [],
      "stateMutability": "nonpayable",
      "type": "function"
    },
    {
      "inputs": [
        {
          "internalType": "uint256",
          "name": "_inputAmt",
          "type": "uint256"
        }
      ],
      "name": "migrateToAUTOv2",
      "outputs": [],
      "stateMutability": "nonpayable",
      "type": "function"
    },
    {
      "inputs": [],
      "name": "owner",
      "outputs": [
        {
          "internalType": "address",
          "name": "",
          "type": "address"
        }
      ],
      "stateMutability": "view",
      "type": "function"
    },
    {
      "inputs": [],
      "name": "ownerAUTOReward",
      "outputs": [
        {
          "internalType": "uint256",
          "name": "",
          "type": "uint256"
        }
      ],
      "stateMutability": "view",
      "type": "function"
    },
    {
      "inputs": [
        {
          "internalType": "uint256",
          "name": "_pid",
          "type": "uint256"
        },
        {
          "internalType": "address",
          "name": "_user",
          "type": "address"
        }
      ],
      "name": "pendingAUTO",
      "outputs": [
        {
          "internalType": "uint256",
          "name": "",
          "type": "uint256"
        }
      ],
      "stateMutability": "view",
      "type": "function"
    },
    {
      "inputs": [
        {
          "internalType": "uint256",
          "name": "",
          "type": "uint256"
        }
      ],
      "name": "poolInfo",
      "outputs": [
        {
          "internalType": "contract IERC20",
          "name": "want",
          "type": "address"
        },
        {
          "internalType": "uint256",
          "name": "allocPoint",
          "type": "uint256"
        },
        {
          "internalType": "uint256",
          "name": "lastRewardBlock",
          "type": "uint256"
        },
        {
          "internalType": "uint256",
          "name": "accAUTOPerShare",
          "type": "uint256"
        },
        {
          "internalType": "address",
          "name": "strat",
          "type": "address"
        }
      ],
      "stateMutability": "view",
      "type": "function"
    },
    {
      "inputs": [],
      "name": "poolLength",
      "outputs": [
        {
          "internalType": "uint256",
          "name": "",
          "type": "uint256"
        }
      ],
      "stateMutability": "view",
      "type": "function"
    },
    {
      "inputs": [],
      "name": "renounceOwnership",
      "outputs": [],
      "stateMutability": "nonpayable",
      "type": "function"
    },
    {
      "inputs": [
        {
          "internalType": "uint256",
          "name": "_pid",
          "type": "uint256"
        },
        {
          "internalType": "uint256",
          "name": "_allocPoint",
          "type": "uint256"
        },
        {
          "internalType": "bool",
          "name": "_withUpdate",
          "type": "bool"
        }
      ],
      "name": "set",
      "outputs": [],
      "stateMutability": "nonpayable",
      "type": "function"
    },
    {
      "inputs": [
        {
          "internalType": "uint256",
          "name": "_pid",
          "type": "uint256"
        },
        {
          "internalType": "address",
          "name": "_user",
          "type": "address"
        }
      ],
      "name": "stakedWantTokens",
      "outputs": [
        {
          "internalType": "uint256",
          "name": "",
          "type": "uint256"
        }
      ],
      "stateMutability": "view",
      "type": "function"
    },
    {
      "inputs": [],
      "name": "startBlock",
      "outputs": [
        {
          "internalType": "uint256",
          "name": "",
          "type": "uint256"
        }
      ],
      "stateMutability": "view",
      "type": "function"
    },
    {
      "inputs": [],
      "name": "totalAllocPoint",
      "outputs": [
        {
          "internalType": "uint256",
          "name": "",
          "type": "uint256"
        }
      ],
      "stateMutability": "view",
      "type": "function"
    },
    {
      "inputs": [
        {
          "internalType": "address",
          "name": "newOwner",
          "type": "address"
        }
      ],
      "name": "transferOwnership",
      "outputs": [],
      "stateMutability": "nonpayable",
      "type": "function"
    },
    {
      "inputs": [
        {
          "internalType": "uint256",
          "name": "_pid",
          "type": "uint256"
        }
      ],
      "name": "updatePool",
      "outputs": [],
      "stateMutability": "nonpayable",
      "type": "function"
    },
    {
      "inputs": [
        {
          "internalType": "uint256",
          "name": "",
          "type": "uint256"
        },
        {
          "internalType": "address",
          "name": "",
          "type": "address"
        }
      ],
      "name": "userInfo",
      "outputs": [
        {
          "internalType": "uint256",
          "name": "shares",
          "type": "uint256"
        },
        {
          "internalType": "uint256",
          "name": "rewardDebt",
          "type": "uint256"
        }
      ],
      "stateMutability": "view",
      "type": "function"
    },
    {
      "inputs": [
        {
          "internalType": "uint256",
          "name": "_pid",
          "type": "uint256"
        },
        {
          "internalType": "uint256",
          "name": "_wantAmt",
          "type": "uint256"
        }
      ],
      "name": "withdraw",
      "outputs": [],
      "stateMutability": "nonpayable",
      "type": "function"
    },
    {
      "inputs": [
        {
          "internalType": "uint256",
          "name": "_pid",
          "type": "uint256"
        }
      ],
      "name": "withdrawAll",
      "outputs": [],
      "stateMutability": "nonpayable",
      "type": "function"
    }
  ],
  "bytecode": "0x6080604052600280546001600160a01b0319908116734508abb72232271e452258530d4ed799c685eccb1790915560038054821673a184088a740c695e156f91f5cc086a06bb78b8271790556004805490911661dead179055608a6005556910f0cf064dd592000000600655661c6bf526340000600755623b56f86008556000600b5534801561008e57600080fd5b5060006100996100ec565b600080546001600160a01b0319166001600160a01b0383169081178255604051929350917f8be0079c531659141344cd1fd0a4f28419497f9722a3daafe3b4186f6b6457e0908290a350600180556100f0565b3390565b612420806100ff6000396000f3fe608060405234801561001057600080fd5b50600436106101a95760003560e01c8063715018a6116100f9578063aceb711011610097578063e2bbb15811610071578063e2bbb1581461047b578063e7fa1e861461049e578063e8af6aff146104a6578063f2fde38b146104ae576101a9565b8063aceb711014610406578063c0660d1d14610423578063c6d758cb1461044f576101a9565b80638dbb1e3a116100d35780638dbb1e3a1461037957806393f1a40b1461039c578063958e2d31146103e1578063a96fe443146103fe576101a9565b8063715018a61461033d5780637b84daec146103455780638da5cb5b14610371576101a9565b806351eb05a611610166578063630b5ba111610140578063630b5ba1146102de57806364482f79146102e657806369f94adf1461031157806370d5ae0514610335576101a9565b806351eb05a6146102665780635312ea8e146102835780635f70edcf146102a0576101a9565b8063015ffb41146101ae578063081e3eda146101c85780631526fe27146101d057806317caf6f114610231578063441a3e701461023957806348cd4cb11461025e575b600080fd5b6101b66104d4565b60408051918252519081900360200190f35b6101b66104da565b6101ed600480360360208110156101e657600080fd5b50356104e0565b60405180866001600160a01b03168152602001858152602001848152602001838152602001826001600160a01b031681526020019550505050505060405180910390f35b6101b661052b565b61025c6004803603604081101561024f57600080fd5b5080359060200135610531565b005b6101b66109be565b61025c6004803603602081101561027c57600080fd5b50356109c4565b61025c6004803603602081101561029957600080fd5b5035610c13565b61025c600480360360808110156102b657600080fd5b508035906001600160a01b036020820135811691604081013515159160609091013516610ee7565b61025c61109f565b61025c600480360360608110156102fc57600080fd5b508035906020810135906040013515156110c2565b610319611193565b604080516001600160a01b039092168252519081900360200190f35b6103196111a2565b61025c6111b1565b6101b66004803603604081101561035b57600080fd5b50803590602001356001600160a01b0316611253565b6103196113d0565b6101b66004803603604081101561038f57600080fd5b50803590602001356113df565b6103c8600480360360408110156103b257600080fd5b50803590602001356001600160a01b0316611472565b6040805192835260208301919091528051918290030190f35b61025c600480360360208110156103f757600080fd5b5035611496565b6101b66114f4565b61025c6004803603602081101561041c57600080fd5b50356114fa565b6101b66004803603604081101561043957600080fd5b50803590602001356001600160a01b03166115e9565b61025c6004803603604081101561046557600080fd5b506001600160a01b03813516906020013561173b565b61025c6004803603604081101561049157600080fd5b50803590602001356117f2565b6101b6611a14565b610319611a1a565b61025c600480360360208110156104c457600080fd5b50356001600160a01b0316611a29565b60055481565b60095490565b600981815481106104ed57fe5b6000918252602090912060059091020180546001820154600283015460038401546004909401546001600160a01b0393841695509193909290911685565b600b5481565b60026001541415610577576040805162461bcd60e51b815260206004820152601f6024820152600080516020612314833981519152604482015290519081900360640190fd5b6002600155610585826109c4565b60006009838154811061059457fe5b60009182526020808320868452600a8252604080852033865290925290832060098054600590940290920194509291869081106105cd57fe5b906000526020600020906005020160040160009054906101000a90046001600160a01b03166001600160a01b03166342da4eb36040518163ffffffff1660e01b815260040160206040518083038186803b15801561062a57600080fd5b505afa15801561063e573d6000803e3d6000fd5b505050506040513d602081101561065457600080fd5b5051600980549192506000918790811061066a57fe5b906000526020600020906005020160040160009054906101000a90046001600160a01b03166001600160a01b03166344a3955e6040518163ffffffff1660e01b815260040160206040518083038186803b1580156106c757600080fd5b505afa1580156106db573d6000803e3d6000fd5b505050506040513d60208110156106f157600080fd5b5051835490915061073c576040805162461bcd60e51b815260206004820152601060248201526f0757365722e73686172657320697320360841b604482015290519081900360640190fd5b60008111610784576040805162461bcd60e51b815260206004820152601060248201526f0736861726573546f74616c20697320360841b604482015290519081900360640190fd5b60006107be84600101546107b864e8d4a510006107b289600301548960000154611b2190919063ffffffff16565b90611b7a565b90611bbc565b905080156107d0576107d03382611bfe565b83546000906107e59084906107b29087611b21565b9050808711156107f3578096505b86156109595760006009898154811061080857fe5b6000918252602080832060046005909302018201546040805163f3fef3a360e01b81523394810194909452602484018d9052516001600160a01b039091169363f3fef3a3936044808201949392918390030190829087803b15801561086c57600080fd5b505af1158015610880573d6000803e3d6000fd5b505050506040513d602081101561089657600080fd5b505186549091508111156108ad57600086556108bc565b85546108b99082611bbc565b86555b8654604080516370a0823160e01b815230600482015290516000926001600160a01b0316916370a08231916024808301926020929190829003018186803b15801561090657600080fd5b505afa15801561091a573d6000803e3d6000fd5b505050506040513d602081101561093057600080fd5b5051905088811015610940578098505b8754610956906001600160a01b0316338b611d8c565b50505b600386015485546109749164e8d4a51000916107b291611b21565b6001860155604080518881529051899133917ff279e6a1f5e320cca91135676d9cb6e44ca8a08c0b88342bcdb1144f6511b5689181900360200190a3505060018055505050505050565b60085481565b6000600982815481106109d357fe5b90600052602060002090600502019050806002015443116109f45750610c10565b60008160040160009054906101000a90046001600160a01b03166001600160a01b03166344a3955e6040518163ffffffff1660e01b815260040160206040518083038186803b158015610a4657600080fd5b505afa158015610a5a573d6000803e3d6000fd5b505050506040513d6020811015610a7057600080fd5b5051905080610a86575043600290910155610c10565b6000610a968360020154436113df565b905060008111610aa857505050610c10565b6000610ad3600b546107b28660010154610acd60075487611b2190919063ffffffff16565b90611b21565b6003549091506001600160a01b03166340c10f19610aef6113d0565b610b0a6103e86107b260055487611b2190919063ffffffff16565b6040518363ffffffff1660e01b815260040180836001600160a01b0316815260200182815260200192505050600060405180830381600087803b158015610b5057600080fd5b505af1158015610b64573d6000803e3d6000fd5b5050600354604080516340c10f1960e01b81523060048201526024810186905290516001600160a01b0390921693506340c10f19925060448082019260009290919082900301818387803b158015610bbb57600080fd5b505af1158015610bcf573d6000803e3d6000fd5b50505050610bfd610bf2846107b264e8d4a5100085611b2190919063ffffffff16565b600386015490611dde565b6003850155505043600290920191909155505b50565b60026001541415610c59576040805162461bcd60e51b815260206004820152601f6024820152600080516020612314833981519152604482015290519081900360640190fd5b6002600181905550600060098281548110610c7057fe5b60009182526020808320858452600a825260408085203386529092529083206009805460059094029092019450929185908110610ca957fe5b906000526020600020906005020160040160009054906101000a90046001600160a01b03166001600160a01b03166342da4eb36040518163ffffffff1660e01b815260040160206040518083038186803b158015610d0657600080fd5b505afa158015610d1a573d6000803e3d6000fd5b505050506040513d6020811015610d3057600080fd5b50516009805491925060009186908110610d4657fe5b906000526020600020906005020160040160009054906101000a90046001600160a01b03166001600160a01b03166344a3955e6040518163ffffffff1660e01b815260040160206040518083038186803b158015610da357600080fd5b505afa158015610db7573d6000803e3d6000fd5b505050506040513d6020811015610dcd57600080fd5b50518354909150600090610de79083906107b29086611b21565b905060098681548110610df657fe5b6000918252602080832060046005909302018201546040805163f3fef3a360e01b8152339481019490945260248401869052516001600160a01b039091169363f3fef3a3936044808201949392918390030190829087803b158015610e5a57600080fd5b505af1158015610e6e573d6000803e3d6000fd5b505050506040513d6020811015610e8457600080fd5b50508454610e9c906001600160a01b03163383611d8c565b604080518281529051879133917fbb757047c2b5f3974fe26b7c10f732e7bce710b0952a71082702781e62ae05959181900360200190a3505060008083556001928301555080555050565b610eef611e38565b6000546001600160a01b03908116911614610f3f576040805162461bcd60e51b815260206004820181905260248201526000805160206123a1833981519152604482015290519081900360640190fd5b8115610f4d57610f4d61109f565b60006008544311610f6057600854610f62565b435b600b54909150610f729086611dde565b600b556040805160a0810182526001600160a01b0395861681526020810196875290810191825260006060820181815293861660808301908152600980546001810182559252915160059091027f6e1540171b6c0c960b71a7020d9f60077f6af931a8bbf590da0223dacf75c7af810180549288166001600160a01b031993841617905596517f6e1540171b6c0c960b71a7020d9f60077f6af931a8bbf590da0223dacf75c7b088015591517f6e1540171b6c0c960b71a7020d9f60077f6af931a8bbf590da0223dacf75c7b187015591517f6e1540171b6c0c960b71a7020d9f60077f6af931a8bbf590da0223dacf75c7b286015590517f6e1540171b6c0c960b71a7020d9f60077f6af931a8bbf590da0223dacf75c7b3909401805494909316931692909217905550565b60095460005b818110156110be576110b6816109c4565b6001016110a5565b5050565b6110ca611e38565b6000546001600160a01b0390811691161461111a576040805162461bcd60e51b815260206004820181905260248201526000805160206123a1833981519152604482015290519081900360640190fd5b80156111285761112861109f565b6111658261115f6009868154811061113c57fe5b906000526020600020906005020160010154600b54611bbc90919063ffffffff16565b90611dde565b600b81905550816009848154811061117957fe5b906000526020600020906005020160010181905550505050565b6002546001600160a01b031681565b6004546001600160a01b031681565b6111b9611e38565b6000546001600160a01b03908116911614611209576040805162461bcd60e51b815260206004820181905260248201526000805160206123a1833981519152604482015290519081900360640190fd5b600080546040516001600160a01b03909116907f8be0079c531659141344cd1fd0a4f28419497f9722a3daafe3b4186f6b6457e0908390a3600080546001600160a01b0319169055565b6000806009848154811061126357fe5b60009182526020808320878452600a825260408085206001600160a01b03808a16875290845281862060046005909602909301858101548351632251caaf60e11b8152935191985093969593909116936344a3955e9383810193919291829003018186803b1580156112d457600080fd5b505afa1580156112e8573d6000803e3d6000fd5b505050506040513d60208110156112fe57600080fd5b5051600980549192506000918890811061131457fe5b906000526020600020906005020160040160009054906101000a90046001600160a01b03166001600160a01b03166342da4eb36040518163ffffffff1660e01b815260040160206040518083038186803b15801561137157600080fd5b505afa158015611385573d6000803e3d6000fd5b505050506040513d602081101561139b57600080fd5b50519050816113b15760009450505050506113ca565b82546113c39083906107b29084611b21565b9450505050505b92915050565b6000546001600160a01b031690565b600654600354604080516318160ddd60e01b81529051600093926001600160a01b0316916318160ddd916004808301926020929190829003018186803b15801561142857600080fd5b505afa15801561143c573d6000803e3d6000fd5b505050506040513d602081101561145257600080fd5b505110611461575060006113ca565b61146b8284611bbc565b9392505050565b600a6020908152600092835260408084209091529082529020805460019091015482565b600260015414156114dc576040805162461bcd60e51b815260206004820152601f6024820152600080516020612314833981519152604482015290519081900360640190fd5b60026001556114ed81600019610531565b5060018055565b60065481565b624ccd75431061153f576040805162461bcd60e51b815260206004820152600b60248201526a0e8dede40d8c2e8ca4074560ab1b604482015290519081900360640190fd5b60045460025461155c916001600160a01b03918216911683611e3c565b60045460025461157b916001600160a01b039182169133911684611f2d565b600354604080516340c10f1960e01b81523360048201526024810184905290516001600160a01b03909216916340c10f199160448082019260009290919082900301818387803b1580156115ce57600080fd5b505af11580156115e2573d6000803e3d6000fd5b5050505050565b600080600984815481106115f957fe5b60009182526020808320878452600a825260408085206001600160a01b03898116875290845281862060059590950290920160038101546004808301548451632251caaf60e11b8152945193995096979196919591909416936344a3955e93808201939190829003018186803b15801561167257600080fd5b505afa158015611686573d6000803e3d6000fd5b505050506040513d602081101561169c57600080fd5b50516002850154909150431180156116b357508015155b156117135760006116c88560020154436113df565b905060006116ef600b546107b28860010154610acd60075487611b2190919063ffffffff16565b905061170e611707846107b28464e8d4a51000611b21565b8590611dde565b935050505b6113c383600101546107b864e8d4a510006107b2868860000154611b2190919063ffffffff16565b611743611e38565b6000546001600160a01b03908116911614611793576040805162461bcd60e51b815260206004820181905260248201526000805160206123a1833981519152604482015290519081900360640190fd5b6003546001600160a01b03838116911614156117de576040805162461bcd60e51b8152602060048201526005602482015264217361666560d81b604482015290519081900360640190fd5b6110be6001600160a01b0383163383611d8c565b60026001541415611838576040805162461bcd60e51b815260206004820152601f6024820152600080516020612314833981519152604482015290519081900360640190fd5b6002600155611846826109c4565b60006009838154811061185557fe5b60009182526020808320868452600a825260408085203386529092529220805460059092029092019250156118c65760006118b282600101546107b864e8d4a510006107b287600301548760000154611b2190919063ffffffff16565b905080156118c4576118c43382611bfe565b505b82156119b35781546118e3906001600160a01b0316333086611f2d565b60048201548254611901916001600160a01b03918216911685611e3c565b60006009858154811061191057fe5b600091825260208083206004600590930201820154604080516311f9fbc960e21b8152339481019490945260248401899052516001600160a01b03909116936347e7ef24936044808201949392918390030190829087803b15801561197457600080fd5b505af1158015611988573d6000803e3d6000fd5b505050506040513d602081101561199e57600080fd5b505182549091506119af9082611dde565b8255505b600382015481546119ce9164e8d4a51000916107b291611b21565b6001820155604080518481529051859133917f90890809c654f11d6e72a28fa60149770a0d11ec6c92319d6ceb2bb0a4ea1a159181900360200190a35050600180555050565b60075481565b6003546001600160a01b031681565b611a31611e38565b6000546001600160a01b03908116911614611a81576040805162461bcd60e51b815260206004820181905260248201526000805160206123a1833981519152604482015290519081900360640190fd5b6001600160a01b038116611ac65760405162461bcd60e51b81526004018080602001828103825260268152602001806123346026913960400191505060405180910390fd5b600080546040516001600160a01b03808516939216917f8be0079c531659141344cd1fd0a4f28419497f9722a3daafe3b4186f6b6457e091a3600080546001600160a01b0319166001600160a01b0392909216919091179055565b600082611b30575060006113ca565b82820282848281611b3d57fe5b041461146b5760405162461bcd60e51b81526004018080602001828103825260218152602001806123806021913960400191505060405180910390fd5b600061146b83836040518060400160405280601a81526020017f536166654d6174683a206469766973696f6e206279207a65726f000000000000815250611f87565b600061146b83836040518060400160405280601e81526020017f536166654d6174683a207375627472616374696f6e206f766572666c6f770000815250612029565b600354604080516370a0823160e01b815230600482015290516000926001600160a01b0316916370a08231916024808301926020929190829003018186803b158015611c4957600080fd5b505afa158015611c5d573d6000803e3d6000fd5b505050506040513d6020811015611c7357600080fd5b5051905080821115611d07576003546040805163a9059cbb60e01b81526001600160a01b038681166004830152602482018590529151919092169163a9059cbb9160448083019260209291908290030181600087803b158015611cd557600080fd5b505af1158015611ce9573d6000803e3d6000fd5b505050506040513d6020811015611cff57600080fd5b50611d879050565b6003546040805163a9059cbb60e01b81526001600160a01b038681166004830152602482018690529151919092169163a9059cbb9160448083019260209291908290030181600087803b158015611d5d57600080fd5b505af1158015611d71573d6000803e3d6000fd5b505050506040513d60208110156115e257600080fd5b505050565b604080516001600160a01b038416602482015260448082018490528251808303909101815260649091019091526020810180516001600160e01b031663a9059cbb60e01b179052611d87908490612083565b60008282018381101561146b576040805162461bcd60e51b815260206004820152601b60248201527f536166654d6174683a206164646974696f6e206f766572666c6f770000000000604482015290519081900360640190fd5b3390565b6000611ed282856001600160a01b031663dd62ed3e30876040518363ffffffff1660e01b815260040180836001600160a01b03168152602001826001600160a01b031681526020019250505060206040518083038186803b158015611ea057600080fd5b505afa158015611eb4573d6000803e3d6000fd5b505050506040513d6020811015611eca57600080fd5b505190611dde565b604080516001600160a01b038616602482015260448082018490528251808303909101815260649091019091526020810180516001600160e01b031663095ea7b360e01b179052909150611f27908590612083565b50505050565b604080516001600160a01b0380861660248301528416604482015260648082018490528251808303909101815260849091019091526020810180516001600160e01b03166323b872dd60e01b179052611f27908590612083565b600081836120135760405162461bcd60e51b81526004018080602001828103825283818151815260200191508051906020019080838360005b83811015611fd8578181015183820152602001611fc0565b50505050905090810190601f1680156120055780820380516001836020036101000a031916815260200191505b509250505060405180910390fd5b50600083858161201f57fe5b0495945050505050565b6000818484111561207b5760405162461bcd60e51b8152602060048201818152835160248401528351909283926044909101919085019080838360008315611fd8578181015183820152602001611fc0565b505050900390565b60606120d8826040518060400160405280602081526020017f5361666545524332303a206c6f772d6c6576656c2063616c6c206661696c6564815250856001600160a01b03166121349092919063ffffffff16565b805190915015611d87578080602001905160208110156120f757600080fd5b5051611d875760405162461bcd60e51b815260040180806020018281038252602a8152602001806123c1602a913960400191505060405180910390fd5b6060612143848460008561214b565b949350505050565b60608247101561218c5760405162461bcd60e51b815260040180806020018281038252602681526020018061235a6026913960400191505060405180910390fd5b612195856122a7565b6121e6576040805162461bcd60e51b815260206004820152601d60248201527f416464726573733a2063616c6c20746f206e6f6e2d636f6e7472616374000000604482015290519081900360640190fd5b60006060866001600160a01b031685876040518082805190602001908083835b602083106122255780518252601f199092019160209182019101612206565b6001836020036101000a03801982511681845116808217855250505050505090500191505060006040518083038185875af1925050503d8060008114612287576040519150601f19603f3d011682016040523d82523d6000602084013e61228c565b606091505b509150915061229c8282866122ad565b979650505050505050565b3b151590565b606083156122bc57508161146b565b8251156122cc5782518084602001fd5b60405162461bcd60e51b8152602060048201818152845160248401528451859391928392604401919085019080838360008315611fd8578181015183820152602001611fc056fe5265656e7472616e637947756172643a207265656e7472616e742063616c6c004f776e61626c653a206e6577206f776e657220697320746865207a65726f2061646472657373416464726573733a20696e73756666696369656e742062616c616e636520666f722063616c6c536166654d6174683a206d756c7469706c69636174696f6e206f766572666c6f774f776e61626c653a2063616c6c6572206973206e6f7420746865206f776e65725361666545524332303a204552433230206f7065726174696f6e20646964206e6f742073756363656564a264697066735822122045339e9f72b96d9f8d07f3ce5b6a347335c00f84553b5af422fb4feab6695c0664736f6c634300060c0033",
  "linkReferences": {},
  "deployedLinkReferences": {}
}